:030000000206DD18
:0C06DD00787FE4F6D8FD75814302072405
:10089F00013A0002290000043600000000C104C123
:1008AF0005C101C102C100C103042E0000000004F4
:0508BF004000000000F4
:1003BC0012000E120926C2A0C28CC2AC1207697FB1
:1003CC000A7E001208E3D2AC7F7212091CE5237579
:1003DC00F00A842430FF12091CE52375F00A84E529
:1003EC00F02430FF12091C7F0D12091C7F0A120920
:1003FC001C1208DF7F7412091CE52475F00A842492
:10040C0030FF12091CE52475F00A84E5F02430FF56
:10041C0012091C7F0D12091C7F0A12091C7F0A7E0F
:10042C00001208E3D2A8D288C289AE27AF287C0379
:10043C007DE812028B8F40AE27AF287C037DE8123B
:10044C00028BAA04AB057D647C00AF03AE021202E2
:10045C008B8F417D647C00AF03AE0212028BAA0429
:10046C00AB057D0A7C00AF03AE0212028B8F427D7E
:10047C000A7C00AF03AE0212028B8D437F6A120915
:10048C001CE5402430FF12091CE5412430FF120901
:10049C001CE5422430FF12091CE5432430FF1209ED
:1004AC001C7F0D12091C7F0A12091C1208DFD28C4A
:1004BC001208C5D204A2A4B3B00140F9D2AC3001E9
:1004CC0010752E09752F09753009753109C2018017
:1004DC0039C204E4F52CF52DD205D203A2A4B00246
:1004EC0040FA300210752E09752F097530097531D7
:1004FC0009C2028015C205E4F534F535D200C203F9
:10050C00C2AC120570E4F532F533C204C205C20365
:10051C00D2AC7F7A12091CE52E2430FF12091CE59F
:10052C002F2430FF12091CE5302430FF12091C7FE8
:10053C003012091C7F0D12091C7F0A12091CC28C77
:10054C001208DF20A7047F6E80027F7012091C7FC7
:10055C003012091C7F0D12091C7F0A12091C12088B
:04056C00DF0203C4E3
:1008F800D3EF9400EE9400400DE4FD0DBD1BFCEF1A
:060908001F70ED1E80EAE5
:01090E0022C6
:0C090F001508150815081508150815082E
:01091B0022B9
:10000E00438921759850758BFD758DFDD2AFD2AC9D
:03001E00D28E225D
:09092600758CFF758AF6D2A92236
:03000B000207DA0F
:1007DA00C0E0C0D0758CFF758AF6300419052DE586
:1007EA002D7002052CC394E0E52C942E4008752C3C
:1007FA0000752D00D2013005190535E53570020561
:10080A0034C394C8E5349432400875340075350011
:10081A00D2023003080533E53370020532D0D0D056
:02082A00E032BA
:0A091C00C2998F993099FDC299220B
:03002300020627AB
:10062700C0E0C0F0C083C082C0D075D000C000C099
:1006370001C002C003C004C005C006C00730987BD4
:10064700C2ACC29885993F7FC87E001208E3E53F98
:10065700249E601714601E14602D14603C240470DF
:1006670038D294C295D296C2978012C294D295C2BC
:1006770096D297801AC294D295C296D297D290C238
:1006870091D292C2938022D294C295D296C297C237
:1006970090D291C292D2938010C294C295C296C250
:1006A70097C290C291C292C293E53F2498600824F2
:1006B700027006D2A08002C2A0D2ACD007D006D06A
:1006C70005D004D003D002D001D000D0D0D082D042
:0606D70083D0F0D0E032F8
:0300030002086E82
:10086E00C0E0C0D0E53FB4610A0528E528701D053B
:10087E00278019E53FB46214E52845277006F52751
:10088E00F5288008E528152870021527D0D0D0E06D
:01089E003227
:10082C00E4FFFE753A0220A307AD3A053AED70F6E7
:10083C0012090F12090F12090FE4F52B30A30375DF
:10084C002B01753A0230A307AD3A053AED70F6E587
:10085C003A6401600CEF25E0FFE52B42070EBE0861
:01086C00C2C9
:01086D002268
:10076900C2A37FB47E001208F8D2A312090F12099E
:100779000F12090F12090FD2A320A34E753A0220B6
:10078900A307AF3A053AEF70F6753A0230A307AFFF
:100799003A053AEF70F612082C8F3B12082C8F3D60
:1007A90012082C8F3C12082C8F3E12082C8F21D254
:1007B900A3E53B253D253C253EF522B5210C853B8E
:1007C90023853D25853C24853E267F027E0002083F
:0107D900E33C
:1008C500D2A50000000000000000000000000000AC
:0A08D50000000000000000C2A52290
:10057000AC32AD33E41201D17B9A7A9979D9783FC4
:10058000120026E4FBFA7920784112012F12020AA8
:100590008F398E388D378C36E47BE87A03F9F81280
:1005A000031CAC00AD01AE02AF03E47B64FAF9F8C2
:1005B00012031C8F2EE47BE87A03F9F8AF39AE38CA
:1005C000AD37AC3612031CAC00AD01AE02AF03E494
:1005D0007B64FAF9F812031CAC00AD01AE02AF0364
:1005E000E47B0AFAF9F812031C8F2FE47BE87A0304
:1005F000F9F8AF39AE38AD37AC3612031CAC00ADEC
:1006000001AE02AF03E47B0AFAF9F812031CAC0056
:10061000AD01AE02AF03E47B0AFAF9F812031CAF96
:07062000038F30E4F53122E5
:0408DF007F327E00E6
:1008E300EF1FAA0670011E4A600A7DF5AC051DECD8
:0408F30060EE80F83B
:0108F70022DE
:10002600EC4D6011E8497017ED33EC3304600DE4D4
:10003600FCFFFEFD22E933E8330470F80202761273
:10004600024158046009E4CC248150062850090274
:10005600028028400302027DC0E0EB4A7044B9806A
:1000660006D0E0FB02026CEF4E701CBD8008EBFF71
:10007600EAFEE9FD80EBE98DF0A4FEE5F002010F52
:10008600E9CDF9EAFEEBFFEF89F0A4FCE5F0CE89B5
:10009600F0A42EFFE435F0CD89F0A42DFEE435F072
:1000A6008067EF4E7005BD80D780C3EF8BF0A4ACA0
:1000B600F0EE8BF0A42CFCE435F0F8EF8AF0A42CDB
:1000C600E5F038FCE433CB8DF0A42CFCE5F03BF8EE
:1000D600EE8AF0A42CFCE5F038F8E433CF89F0A4DE
:1000E6002CFCE5F038CF3400CE89F0A42FFFE5F0E4
:1000F6003EFEE433C98DF0A42EFEE5F039CD8AF03C
:10010600A42FFFE5F03EFEE43DFD33D0E0FB5007B3
:100116000BBB000F020280EC2CFCEF33FFEE33FE2C
:06012600ED33FD0202585A
:10012C00020280EC5D046005E8590470030202765B
:10013C00120241580460F6EC4860F2EC7004FDFECB
:10014C00FF22C860DB2481C85009C39860025006A6
:10015C0002027D9850CAF582E9294B4A7005AB82A0
:10016C0002026C75F0007C1A7880C3EF9BEE9AED5E
:10017C0099400DC3EF9BFFEE9AFEED99FDE842F01E
:10018C00DC23ACF0D0E0FFD0E0FED0E0FDAB822071
:10019C00E7101BEB60BAEC2CFCEF33FFEE33FEEDFB
:1001AC0033FD020258E803F830E705C0F075F000A3
:1001BC00EF2FFFEE33FEED33FD40B830E7C280AADF
:1001CC0075F020800E75F010800575F0087D007EAE
:1001DC00007F003392D530D5031203AEEC334010C0
:1001EC00EF33FFEE33FEED33FDEC33FCD5F0ED22B7
:0E01FC00E5F0247EA2D513CC92E7CDCEFF22F3
:10020A00EDD2E7CD33EC3392D524814006E4FFFEEC
:10021A00FDFC22FCE4CFCECDCC24E0501174FF804B
:10022A00EDC3CC13CCCD13CDCE13CECF13CF0470E8
:07023A00F030D5DE0203AE37
:10024100E9D2E7C933E833F892D5EDD2E7CD33EC03
:0702510033FC5002B2D5227C
:10025800EC30E7100FBF000C0EBE00080DBD000407
:100268000BEB6014A2D5EB13FCED92E7FD2274FFB3
:10027800FCFDFEFF22E480F8A2D574FF13FC7D800C
:03028800E480EF20
:1006E9000203BCE493A3F8E493A34003F68001F268
:1006F90008DFF48029E493A3F85407240CC8C33312
:10070900C4540F4420C8834004F456800146F6DFE0
:10071900E4800B010204081020408090089FE47EC9
:10072900019360BCA3FF543F30E509541FFEE493D5
:10073900A360010ECF54C025E060A840B8E493A39C
:10074900FAE493A3F8E493A3C8C582C8CAC583CAC7
:10075900F0A3C8C582C8CAC583CADFE9DEE780BE7F
:0108C4000033
:10028B00BC000BBE0029EF8DF084FFADF022E4CC57
:10029B00F875F008EF2FFFEE33FEEC33FCEE9DEC20
:1002AB00984005FCEE9DFE0FD5F0E9E4CEFD22ED66
:1002BB00F8F5F0EE8420D21CFEADF075F008EF2FB0
:1002CB00FFED33FD4007985006D5F0F222C398FDA1
:0502DB000FD5F0EA223E
:1002E00075F008758200EF2FFFEE33FECD33CDCCD5
:1002F00033CCC58233C5829BED9AEC99E582984058
:100300000CF582EE9BFEED9AFDEC99FC0FD5F0D634
:10031000E4CEFBE4CDFAE4CCF9A88222B800C1B95E
:100320000059BA002DEC8BF084CFCECDFCE5F0CB9C
:10033000F97818EF2FFFEE33FEED33FDEC33FCEBD5
:1003400033FB10D703994004EB99FB0FD8E5E4F990
:10035000FA227818EF2FFFEE33FEED33FDEC33FC7D
:10036000C933C910D7059BE99A4007EC9BFCE99A71
:10037000F90FD8E0E4C9FAE4CCFB2275F010EF2FB6
:10038000FFEE33FEED33FDCC33CCC833C810D707B6
:100390009BEC9AE899400AED9BFDEC9AFCE899F8F1
:0E03A0000FD5F0DAE4CDFBE4CCFAE4C8F92284
:0E03AE00C3E49FFFE49EFEE49DFDE49CFC2260
:00000001FF
